:020000040000FA
:0400000007EF00F016
:0A00080068825FED05F097EF05F048
:0B060000003837380A0025750A00009A
:10060C004550D96EDA6ADFCFF6FF060EF76E08009A
:10061C00F550250AD8A415EF03F017EF03F0A9EF56
:10062C0003F04550D96EDA6ADF2A000E226E000EF6
:10063C00216E21C025F0236824684550D96EDA6AF2
:10064C00DF504C6E4CC0F6FF060EF76E0800F550EE
:10065C00750AD8A434EF03F036EF03F0A3EF03F0E0
:10066C004650D96EDA6A020EDF26DF5CD96EDA6A82
:10067C00DECF48F0DECF49F04550D96EDA6A4C280F
:10068C00DF6E97EF03F0200E4D6E4D064D50010FAF
:10069C00D96EDA6A48C03CF049C03DF0000E3F6E9E
:1006AC000A0E3E6EBCEC04F03C50300FDF6E48C0BE
:1006BC003CF049C03DF0000E3F6E0A0E3E6E4FEC12
:1006CC0004F03CC048F03DC049F048504910D8B443
:1006DC0072EF03F074EF03F08CEF03F04D50D8A4DD
:1006EC007AEF03F07CEF03F04BEF03F08CEF03F0A9
:1006FC004D50010FD96EDA6ADF50476E47503C6E91
:10070C003D6A44C03EF0BBEC03F04D2A200E4D1860
:10071C00D8A493EF03F095EF03F07EEF03F0BAEF5C
:10072C0003F04CC0F6FF060EF76E0800F550750A84
:10073C00D8B449EF03F0A3EF03F04550D96EDA6A51
:10074C00DF2ABAEF03F04550D96EDA6ADFCFF6FF35
:10075C00060EF76E0800F5503C6E3D6A44C03EF044
:10076C00BBEC03F0A3EF03F012003E50D8B4C1EF82
:10077C0003F0C3EF03F0CBEF03F03E50D8A4C9EF66
:10078C0003F0CBEF03F0D0EF03F03C50CBEC05F0D3
:10079C000FEF04F03E50D96EDA6A090ED926DE50FE
:1007AC00DE10D8B4DCEF03F0DEEF03F0F7EF03F06C
:1007BC003E50D96EDA6A090ED9263E50E16EE26AD5
:1007CC00020EE126DE50E65CE650800A436EDE50F7
:1007DC00800A4358D8B0F5EF03F0F7EF03F00FEFB2
:1007EC0004F03E50D96EDA6A020ED926DF503F6E05
:1007FC003E50D96EDA6ADF503F24D96EDA6A3CC0BB
:10080C00DFFF3E50D96EDA6A020ED926DE2A000EC0
:10081C00DD221200000E426E000E416E30EF04F02D
:10082C0041503D243F6E42503E20406E3FC0F6FF8B
:10083C0040C0F7FFF86A050EF76403D00800F550C6
:10084C0005D0F6CFE1FFF7CFE2FFE750B0EC05F0B3
:10085C00414A422A41503D243F6E42503E20406E58
:10086C003FC0F6FF40C0F7FFF86A050EF76403D0EF
:10087C000800F55005D0F6CFE1FFF7CFE2FFE750C7
:10088C000009D8A44CEF04F04EEF04F016EF04F07E
:10089C001200000E416E000E406E3E503F10D8B458
:1008AC005AEF04F05CEF04F084EF04F0010E426E9A
:1008BC0064EF04F0D8903E363F36422A3FAE69EFE3
:1008CC0004F06BEF04F060EF04F0D8904036413642
:1008DC003E503C5C3F503D58D8A077EF04F079EF88
:1008EC0004F07EEF04F03E503C5E3F503D5A408099
:1008FC00D8903F323E32422E6BEF04F040C03CF0B9
:10090C0041C03DF01200D3508F0B4009D36EC7ECA1
:10091C0005F0BBEC05F086EC05F0C1EC05F075ECD0
:10092C0005F0A4EC05F02650D8B49FEF04F0A1EF2D
:10093C0004F0A5EF04F0EEEC04F099EF04F0010ED6
:10094C003D6E3D50D8A4060E3E6E10EC04F0020E27
:10095C00676E450E666EAA0EE82EFED7662EFCD785
:10096C00672EFAD799EF04F007EF00F03E503F10D6
:10097C00D8B4C3EF04F0C5EF04F0E9EF04F0010EB6
:10098C00406ECDEF04F0D8903E363F36402A3FAE55
:10099C00D2EF04F0D4EF04F0C9EF04F03E503C5C0D
:1009AC003F503D58D8A0DDEF04F0DFEF04F0E3EF4B
:1009BC0004F03E503C5E3F503D5AD8903F323E32A0
:1009CC00402ED4EF04F03CC03CF03DC03DF0120092
:1009DC0048EC05F03CC064F03DC065F0270E526E4B
:1009EC00060E536E64C054F065C055F02EEC05F045
:1009FC00270E3D6E3E6A10EC04F0020E636E450E3F
:100A0C00626EAA0EE82EFED7622EFCD7632EFAD7A2
:100A1C0012004FC051F01BEF05F04EC044F0510EC8
:100A2C00456E50C046F006EC03F051C0F6FF060EC2
:100A3C00F76E0800F5500009D8A427EF05F029EF50
:100A4C0005F013EF05F0000E4F6E000E4E6E120007
:100A5C00540E566E52C057F0000E5A6E000E596E60
:100A6C00000E616E000E606E570E4E6E53C04FF04E
:100A7C00560E506E0FEC05F052505924D96EDA6AAE
:100A8C00DF6A1200C282C280C2B24FEF05F051EF92
:100A9C0005F04AEF05F0C4503F6E3E6AC3503E2449
:100AAC00406E000E3F20416E40C03CF041C03DF016
:100ABC0012000600520E3B6E2A0EE82EFED73B2E7D
:100ACC00FCD7F2B26CEF05F06EEF05F070EF05F0AD
:100ADC0073EF05F0010E261AF29268921100948CB5
:100AEC00948EAB8EAC98B896AC940C0EAF6EAC8A60
:100AFC00AB889D989F989E989D9A9F9A9E9A12005B
:100B0C00C198C19AC150F00B0E09C16EC30EC2162A
:100B1C00F80EC016C050C70B0809C06EC08EC2803C
:100B2C00120000EE01F03A0EEE6AE806FDE1689064
:100B3C006892000EF86E000189EF04F09486948898
:100B4C00C78EC79CC650F00B0809C66E130EC86E34
:100B5C00C68A12003C6EACA2B6EF05F0B8EF05F0F9
:100B6C00B1EF05F03CC0ADFF12000E0EC16E9380CC
:100B7C00F292F28812009D9C9E9C9F9CF28CF28EAD
:0C0B8C001200D08EF28EF28C12001200CB
:020000040020DA
:08000000FFFFFFFFFFFFFFFF00
:020000040030CA
:0E000000FF881F00FF8381FF0FC00FE00F403D
:00000001FF
